:030000000210EEFD
:0C10EE00787FE4F6D8FD758148021135CA
:10124F003F065B4F666D7D077F6F40BF86DBCFE646
:0D125F00EDFD87FFEFFEFDFBF7EFDFBF7F2A
:0A129300082B00000000000000001E
:04126C007F027E007F
:10127000EF1FAA0670011E4A600BE4FDEDC394E661
:0512800050EE0D80F7A7
:011285002246
:0411FD008E288F2980
:101201007F0A7E00E529452870037F01227B017A50
:1012110000C3EB9529E5286480F8EA648098500EB4
:0E1221007C007D0A120AC50BBB00010A80E3A7
:01122F00229C
:100F2C007590F0AF90EF54F064F07003020FEF7F08
:100F3C00147E00121270AF90EF54F064F070030244
:100F4C000FEF75900FAE90EF4E120B4A0FD7770F35
:100F5C00C37B0FAF7D0F9B7E0FD2B70FBEBB0FAA0B
:100F6C00BD0F96BE0FCDD70FB9DB0FA5DD0F91DEF0
:100F7C000FC8E70FB4EB0FA0ED0F8CEE00000FDAEB
:100F8C0075230E804975230D804475230C803F75A5
:100F9C00230B803A75230F8035752303803075231E
:100FAC0006802B752309802675231080217523025A
:100FBC00801C75230580177523088012E4F52380A7
:100FCC000D75230180087523048003752307759024
:100FDC00F0E59054F0FFBFF00280051211BE80EED8
:100FEC00AF232230B00F30B10C30B20930B3063021
:100FFC00B40320B54020B00375231120B103752331
:10100C001220B20375231320B30375231420B403E9
:10101C0075231520B50375231630B01130B10E3081
:10102C00B20B30B30830B40530B50280051211BED6
:07103C0080E7AF23227F379C
:01104300228A
:1012300075807975A0EF12126C75807775A0F21227
:0F124000126C75803F75A0FD12126CE4F58022D0
:0811BE00E546B4010302123002
:1011C600E4F524E524C39534502CE524B5450924DB
:1011D6002BF8E690125A8009742B2524F8E6901213
:1011E6004F93F580E52490126493F5A012126CE4F7
:0611F600F580052480CD08
:0111FC0022D0
:100C3E007FFF7EE07DF57C05AB38AA37A936A83557
:100C4E00D3120B3450107F817E697D677CFFA835EF
:100C5E00C3120B345003754601AC35EC3350057599
:100C6E0048018003E4F548E5476003020DA5AF3C5B
:100C7E00AE3BAD3AAC39EC4D4E4F7005F545020D1D
:100C8E00A8E47B107A27F9F8AF3CAE3BAD3AAC390D
:100C9E0012117AAC00AD01AE02AF03EC4D4E4F70A7
:100CAE00217545017F7F7E967D98FCAB38AA37A9CA
:100CBE0036A835D3120B345003020DA8E4F54502C5
:100CCE000DA8E47BE87A03F9F8AF3CAE3BAD3AAC45
:100CDE003912117AAC00AD01AE02AF03EC4D4E4F9E
:100CEE0070217545027F3F7E427D0FFCAB38AA37DF
:100CFE00A936A835D3120B345003020DA875450141
:100D0E00020DA8E47B64FAF9F8AF3CAE3BAD3AAC09
:100D1E003912117AAC00AD01AE02AF03EC4D4E4F5D
:100D2E00701D7545037F9F7E867D01FCAB38AA370B
:100D3E00A936A835D3120B344060754502805BE4AA
:100D4E007B0AFAF9F8AF3CAE3BAD3AAC3912117AE8
:100D5E00AC00AD01AE02AF03EC4D4E4F701C7545AD
:100D6E00047F0F7E27FDFCAB38AA37A936A835D3F2
:100D7E00120B3440257545038020754505E47FE749
:100D8E007E03FDFCAB38AA37A936A835D3120B3437
:100D9E0040087545048003853345AF38AE37AD3610
:100DAE00AC35EC120A06121286120A448F278E26D2
:100DBE008D258C247F7F7E967D987C00AB27AA267E
:100DCE00A925A824D3120B344006753408020E86CA
:100DDE007F3F7E427D0F7C00AB27AA26A925A82443
:100DEE00D3120B344007E5452407020E827F9F7E07
:100DFE00867D017C00AB27AA26A925A824D3120B39
:100E0E00344006E5452406806BE47F0F7E27FDFC0B
:100E1E00AB27AA26A925A824D3120B344006E545F4
:100E2E0024058050E47FE77E03FDFCAB27AA26A9AC
:100E3E0025A824D3120B344006E54524048035E45E
:100E4E007F63FEFDFCAB27AA26A925A824D3120B8F
:100E5E00344006E5452403801BE47F09FEFDFCAB10
:100E6E0027AA26A925A824D3120B34E5454004242D
:100E7E00028001042548F534E534D3940840037507
:100E8E004601E4F523E523C39545503FC37404950D
:100E9E0023FFE49400FE1211FDAB07AA06EA339578
:100EAE00E0F9F8AF3CAE3BAD3AAC3912117AE47BC7
:100EBE000AFAF9F812117AAF03E523FDE545C39D51
:100ECE00FD742A2DF8A607052380BA854523C3E5B0
:100EDE00349548FFE523C39F5037E47B0AFAF9F8AF
:100EEE00AF27AE26AD25AC2412117AAF03742B2595
:100EFE0023F8A607AF27AE26AD25AC24E47B0AFA6D
:100F0E00F9F812117A8F278E268D258C24052380D1
:0D0F1E00BDE548B40107742A2534F8760AB1
:010F2B0022A3
:10000300750801E4F509F50AF522F521F520F51F38
:10001300F51EF51DF51CF51BF533F547F52AF544DB
:10002300F543F542F541F540F53FF53EF53DF53C29
:10003300F53BF53AF539F538F537F536F53575B05D
:10004300FF120F2C8F2AE52AC394005003020140AC
:10005300E52AD394094003020140E50AB40127E4E9
:10006300F533F547F52AF544F543F542F541F540F7
:10007300F53FF53EF53DF53CF53BF53AF539F538F9
:10008300F537F536F535E4F50AE547702D7F0AFEB9
:10009300FDFCAB38AA37A936A835120AD7A804A99C
:1000A30005AA06AB07E4FCFDFEEB252AF538EE3A7C
:1000B300F537ED39F536EC38F535E5476401707AF7
:1000C3000533E53324FE6026146030146038146071
:1000D3004B14606324057062AF2A7E007C277D1079
:1000E300120AC5E48F3C8E3BF53AF539804CAF2AB2
:1000F3007E007C037DE8120AC58014E52A75F0644E
:10010300A4FFAEF08009E52A75F00AA4FFAEF0E47F
:10011300FCFDE53C2FF53CE53B3E800DE4FCFDFE9C
:10012300E53C252AF53CEE353BF53BED353AF53A12
:10013300EC3539F5398003754601750801E52AC3A5
:10014300940B4039E52AD3940E5032852A09853819
:100153004085373F85363E85353D853C44853B4369
:10016300853A42853941E4F538F537F536F535F505
:100173003CF53BF53AF539F547F50AF533E52A64DD
:100183000F6003020623E50A600302037B8538122E
:1001930085371185361085350F853C16853B1585CA
:1001A3003A14853913E50924F470030202451470E7
:1001B300030202E91470030203132403600302061B
:1001C3001AE53C2544F53CE53B3543F53BE53A353B
:1001D30042F53AE5393541F5397F9F7E867D017CCD
:1001E30000AB3CAA3BA93AF8D3120B344039AF3CDD
:1001F300AE3BAD3AAC397BA07A8679017800121117
:100203007AAC00AD01AE02AF038F3C8E3B8D3A8CCE
:1002130039E5382540FFE537353FFEE536353EFD08
:10022300E535353D0203FAE5382540F538E5373540
:100233003FF537E536353EF536E535353DF53502DF
:10024300061AC3E544953CF51AE543953BF519E5D4
:1002530042953AF518E5419539F517AF1AAE19AD40
:1002630018FC335050E54424A0FFE5433486FEE5F3
:10027300423401FDE43541FCC3EF953CF53CEE957A
:100283003BF53BED953AF53AEC9539F539E54024E4
:10029300FFFFE53F34FFFEE53E34FFFDE53D34FF60
:1002A300FCC3EF9538F538EE9537F537ED9536F510
:1002B30036EC0204CAC3E544953CF53CE543953B63
:1002C300F53BE542953AF53AE5419539F539C3E50C
:1002D300409538F538E53F9537F537E53E9536F5E2
:1002E30036E53D0204CAAF44AE43AD42AC41EC1225
:1002F3000A067B007A5079C37847120969C004C0A3
:1003030005C006C007AF40AE3FAD3EAC3D0204F8AA
:10031300AF3CAE3BAD3AAC39EC120A067B007A50E7
:1003230079C37847120969C004C005C006C007AF86
:1003330038AE37AD36AC35EC120A06D003D002D056
:1003430001D00012076FC004C005C006C007AF4448
:10035300AE43AD42AC41EC120A067B007A5079C33E
:100363007847120969C004C005C006C007AF40AE94
:100373003FAD3EAC3D0205B8E50924F47003020429
:100383002A1470030204D11470030205532403607A
:100393000302061AE53C2516F53CE53B3515F53B0E
:1003A300E53A3514F53AE5393513F5397F9F7E86FD
:1003B3007D017C00AB3CAA3BA93AF8D3120B344035
:1003C3004BAF3CAE3BAD3AAC397BA07A8679017832
:1003D3000012117AAC00AD01AE02AF038F3C8E3B2D
:1003E3008D3A8C39E5382512FFE5373511FEE536B0
:1003F3003510FDE535350FFCEF2401F538E43EF506
:1004030037E43DF536E43CF53502061AE5382512A6
:10041300F538E5373511F537E5363510F536E53579
:10042300350FF53502061AC3E516953CF51AE515A1
:10043300953BF519E514953AF518E5139539F51734
:10044300AF1AAE19AD18FC33504FE51624A0FFE5E3
:10045300153486FEE5143401FDE43513FCC3EF9532
:100463003CF53CEE953BF53BED953AF53AEC953989
:10047300F539E51224FFFFE51134FFFEE51034FFE3
:10048300FDE50F34FFFCC3EF9538F538EE9537F5EE
:1004930037ED9536F536EC802EC3E516953CF53CE5
:1004A300E515953BF53BE514953AF53AE513953992
:1004B300F539C3E5129538F538E5119537F537E584
:1004C300109536F536E50F9535F53502061AAF1654
:1004D300AE15AD14AC13EC120A067B007A5079C347
:1004E3007847120969C004C005C006C007AF12AE41
:1004F30011AD10AC0FEC120A06D003D002D001D01C
:100503000012076FC004C005C006C007AF3CAE3B76
:10051300AD3AAC39EC120A067B007A5079C37847BE
:10052300120969C004C005C006C007AF38AE37ADB5
:1005330036AC35EC120A06D003D002D001D000123B
:10054300076FD003D002D001D0001208600205DA91
:10055300AF3CAE3BAD3AAC39EC120A067B007A50A5
:1005630079C37847120969C004C005C006C007AF44
:1005730038AE37AD36AC35EC120A06D003D002D014
:1005830001D00012076FC004C005C006C007AF1634
:10059300AE15AD14AC13EC120A067B007A5079C386
:1005A3007847120969C004C005C006C007AF12AE80
:1005B30011AD10AC0FEC120A06A804A905AA06ABEC
:1005C30007D007D006D005D00412076FD003D0029E
:1005D300D001D0001209698F0E8E0D8D0C8C0B1279
:1005E3000A448F388E378D368C35EC120A06A804F0
:1005F300A905AA06AB07AF0EAE0DAD0CAC0B1207E7
:100603006B7B007A5079C37847120860120A448FD3
:100613003C8E3B8D3A8C39E4F547750A0175080128
:10062300E52AB41003754701E52A6412707CAF3CD8
:10063300AE3BAD3AAC39EC120A067B007A5079C373
:100643007847120969C004C005C006C007AF38AEB9
:1006530037AD36AC35EC120A06D003D002D001D048
:100663000012076F1210488F0E8E0D8D0C8C0B121B
:100673000A448F388E378D368C35EC120A06A8045F
:10068300A905AA06AB07AF0EAE0DAD0CAC0B120756
:100693006B7B007A5079C37847120860120A448F43
:1006A3003C8E3B8D3A8C39750801E52AB4112EE452
:1006B300F533F547F52AF544F543F542F541F540A1
:1006C300F53FF53EF53DF53CF53BF53AF539F538A3
:1006D300F537F536F535F546F50A750801E52AB41B
:1006E3001311E4F51EF51DF51CF51BF522F521F597
:1006F30020F51FE52AB4141B851E38851D37851C7C
:1007030036851B3585223C85213B85203A851F395B
:10071300750801E52AB4151885381E85371D8536F9
:100723001C85351B853C22853B21853A2085391F55
:10073300E52AB4161FAF38AE37AD36AC35120B26EB
:100743008F1E8E1D8D1C8C1B853C22853B21853A7B
:100753002085391FE508B40103120C3E1211BEE4D3
:05076300F5080200444E
:10076800020AB0E86480F8E933E83360110460F005
:10077800ED33EC337009E8FCE9FDEAFEEBFF2204F7
:1007880060DED3EB9FEA9EE99DE8C2E78CF0C2F7F2
:1007980095F0400CE8CCF8E9CDF9EACEFAEBCFFBBE
:1007A800120A7B85D0F05804700320D5B3E8047092
:1007B800075002B2D5020ABA92D5EC0460F7E4CC2D
:1007C800C0E0C398F8603B94186008400DD0E0FB87
:1007D800020A92E4FBFAC9FC8028E830E406E4C97E
:1007E800FBE4CAFCE830E305E4C9CACBFCE85407DB
:1007F8006010F8C3E913F9EA13FAEB13FBEC13FCE6
:10080800D8F130F52FC3E49CFCEF9BFFEE9AFEED88
:1008180099FDD0E0FBEF4E4D4C701222DB03020A2B
:10082800B7EC2CFCEF33FFEE33FEED33FDED30E794
:10083800EB020A92EF2BFFEE3AFEED39FDD0E0FB1A
:1008480050130BBB0003020ABAED13FDEE13FEEFC3
:0808580013FFEC13FC020A92ED
:10086000EC4D6011E8497017ED33EC3304600DE492
:10087000FCFFFEFD22E933E8330470F8020AB012EF
:100880000A7B58046009E4CC2481500628500902F0
:100890000ABA284003020AB7C0E0EB4A7044B980A4
:1008A00006D0E0FB020AA6EF4E701CBD8008EBFFED
:1008B000EAFEE9FD80EBE98DF0A4FEE5F0020949CE
:1008C000E9CDF9EAFEEBFFEF89F0A4FCE5F0CE8973
:1008D000F0A42EFFE435F0CD89F0A42DFEE435F030
:1008E0008067EF4E7005BD80D780C3EF8BF0A4AC5E
:1008F000F0EE8BF0A42CFCE435F0F8EF8AF0A42C99
:10090000E5F038FCE433CB8DF0A42CFCE5F03BF8AB
:10091000EE8AF0A42CFCE5F038F8E433CF89F0A49B
:100920002CFCE5F038CF3400CE89F0A42FFFE5F0A1
:100930003EFEE433C98DF0A42EFEE5F039CD8AF0F9
:10094000A42FFFE5F03EFEE43DFD33D0E0FB500771
:100950000BBB000F020ABAEC2CFCEF33FFEE33FEA8
:06096000ED33FD020A92D6
:10096600020ABAEC5D046005E859047003020AB095
:10097600120A7B580460F6EC4860F2EC7004FDFE47
:10098600FF22C860DB2481C85009C3986002500664
:10099600020AB79850CAF582E9294B4A7005AB821C
:1009A600020AA675F0007C1A7880C3EF9BEE9AEDDA
:1009B60099400DC3EF9BFFEE9AFEED99FDE842F0DC
:1009C600DC23ACF0D0E0FFD0E0FED0E0FDAB82202F
:1009D600E7101BEB60BAEC2CFCEF33FFEE33FEEDB9
:1009E60033FD020A92E803F830E705C0F075F0001F
:1009F600EF2FFFEE33FEED33FD40B830E7C280AA9D
:100A060075F020800E75F010800575F0087D007E6B
:100A1600007F003392D530D503120B26EC334010FD
:100A2600EF33FFEE33FEED33FDEC33FCD5F0ED2274
:0E0A3600E5F0247EA2D513CC92E7CDCEFF22B0
:100A4400EDD2E7CD33EC3392D524814006E4FFFEAA
:100A5400FDFC22FCE4CFCECDCC24E0501174FF8009
:100A6400EDC3CC13CCCD13CDCE13CECF13CF0470A6
:070A7400F030D5DE020B2675
:0D128600ED33EC3360065004EC6480FC2274
:10104400020AB022EDA2E7D2E7F9EC3340F260F3F2
:10105400B4FF08ED547F70E8020ABAF82481C2E0B4
:10106400C0E0F40428FAC313FCED92E7FD8C238D51
:10107400248E258F26EEA2E7E9BA7F02C31334003B
:101084009400FA75F091A4E5F013F494FE8AF0A4A8
:1010940033E5F033248CD313FDE492E7FE7F007C28
:1010A4003F758302ECC0E0F8EDC0E0F9EEC0E0FA71
:1010B400EFC0E0FBAC23AD24AE25AF26120969D006
:1010C400E0FBD0E0FAD0E0F9D0E0F812076FED646D
:1010D40080FD30E7011CD583CBED33CC33F8D0E071
:0A10E400A2E71328C313CC13FD226A
:100A7B00E9D2E7C933E833F892D5EDD2E7CD33ECC1
:070A8B0033FC5002B2D5223A
:100A9200EC30E7100FBF000C0EBE00080DBD0004C5
:100AA2000BEB6014A2D5EB13FCED92E7FD2274FF71
:100AB200FCFDFEFF22E480F8A2D574FF13FC7D80CA
:030AC200E480EFDE
:1010FA00020003E493A3F8E493A34003F68001F209
:10110A0008DFF48029E493A3F85407240CC8C333F6
:10111A00C4540F4420C8834004F456800146F6DFC5
:10112A00E4800B0102040810204080901293E47EB0
:10113A00019360BCA3FF543F30E509541FFEE493BA
:10114A00A360010ECF54C025E060A840B8E493A381
:10115A00FAE493A3F8E493A3C8C582C8CAC583CAAC
:10116A00F0A3C8C582C8CAC583CADFE9DEE780BE64
:01129D000050
:100AC500EF8DF0A4A8F0CF8CF0A428CE8DF0A42E45
:020AD500FE22FF
:100AD700E88FF0A4CC8BF0A42CFCE98EF0A42CFCBE
:100AE7008AF0EDA42CFCEA8EF0A4CDA8F08BF0A43C
:100AF7002DCC3825F0FDE98FF0A42CCD35F0FCEB9B
:100B07008EF0A4FEA9F0EB8FF0A4CFC5F02ECD395F
:0F0B1700FEE43CFCEAA42DCE35F0FDE43CFC22CC
:10117A00C2D5E830E70FB2D5E4C39BFBE49AFAE4A0
:10118A0099F9E498F8EC30E717B2D51211B0120BBE
:10119A00ACE4C39BFBE49AFAE499F9E498F8800377
:1011AA00120BAC30D50DE4C39FFFE49EFEE49DFD17
:0411BA00E49CFC2293
:0E0B2600C3E49FFFE49EFEE49DFDE49CFC22E0
:100B3400EB9FF5F0EA9E42F0E99D42F0EC6480C838
:060B440064809845F022D8
:100B4A00D083D082F8E4937012740193700DA3A33A
:100B5A0093F8740193F5828883E47374029368604E
:060B6A00EFA3A3A380DF4E
:100B700075F008758200EF2FFFEE33FECD33CDCC3C
:100B800033CCC58233C5829BED9AEC99E5829840BF
:100B90000CF582EE9BFEED9AFDEC99FC0FD5F0D69C
:100BA000E4CEFBE4CDFAE4CCF9A88222B800C1B9C6
:100BB0000059BA002DEC8BF084CFCECDFCE5F0CB04
:100BC000F97818EF2FFFEE33FEED33FDEC33FCEB3D
:100BD00033FB10D703994004EB99FB0FD8E5E4F9F8
:100BE000FA227818EF2FFFEE33FEED33FDEC33FCE5
:100BF000C933C910D7059BE99A4007EC9BFCE99AD9
:100C0000F90FD8E0E4C9FAE4CCFB2275F010EF2F1D
:100C1000FFEE33FEED33FDCC33CCC833C810D7071D
:100C20009BEC9AE899400AED9BFDEC9AFCE899F858
:0E0C30000FD5F0DAE4CDFBE4CCFAE4C8F922EB
:00000001FF
